:100000000C945A000C9479000C9479000C947900AB
:100010000C9479000C9479000C9479000C9479007C
:100020000C9479000C9479000C9479000C9479006C
:100030000C9479000C94F2000C9479000C947900E3
:100040000C9479000C9479000C9479000C9479004C
:100050000C9479000C9479000C9479000C9479003C
:100060000C9479000C9479000C9479000C9479002C
:100070000C9479000C9479000C9479000C9479001C
:100080000C9479000C9479000C9479009C01A301E4
:10009000AA01E6010D0235025A028302F30142026F
:1000A000BA02C002C602C902F402D902F402E9028D
:1000B000F402F40211241FBECFEFD0E4DEBFCDBFA7
:1000C00011E0A0E0B1E0E8E6F6E000E00BBF02C01E
:1000D00007900D92A231B107D9F721E0A2E1B1E07A
:1000E00001C01D92AA31B207E1F70E94FD020C94F3
:1000F00032030C940000CF93DF9300D01F92CDB752
:10010000DEB789837B836A8389818A3031F48A816F
:100110009B81BC018DE00E947B0080EC90E0FC01A3
:100120008081882F90E080729927892BB1F386EC2B
:1001300090E02981FC01208380E090E00F900F90F7
:100140000F90DF91CF910895CF93DF93CDB7DEB7B6
:1001500081E0809312010000DF91CF910895CF9349
:10016000DF93CDB7DEB781E890E0FC01108200009C
:10017000DF91CF910895CF93DF93CDB7DEB781E8BC
:1001800090E02BE0FC01208388E890E02DE730E050
:10019000FC01318320838FE690E022E0FC01208384
:1001A00084E890E0FC011182108280910E01909110
:1001B0000F01A0911001B091110180931301909350
:1001C0001401A0931501B09316018FE590E02FE57F
:1001D00030E0F90120812068FC0120830000DF91DC
:1001E000CF9108951F920F9200905F000F921124FB
:1001F00000905B000F922F933F934F935F936F9309
:100200007F938F939F93AF93BF93EF93FF93CF937E
:10021000DF93CDB7DEB78091130190911401A091C7
:100220001501B09116010197A109B109809313013D
:1002300090931401A0931501B093160180911301BE
:1002400090911401A0911501B0911601892B8A2B70
:100250008B2B91F40E94A40080910E0190910F01CC
:10026000A0911001B091110180931301909314019A
:10027000A0931501B09316010000DF91CF91FF917B
:10028000EF91BF91AF919F918F917F916F915F910E
:100290004F913F912F910F9000925B000F90009231
:1002A0005F000F901F901895CF93DF9300D000D080
:1002B000CDB7DEB769837A838B839C8389819A81EA
:1002C000AB81BC8180930E0190930F01A09310012C
:1002D000B093110180910E0190910F01A091100136
:1002E000B09111018093130190931401A093150113
:1002F000B093160100000F900F900F900F90DF91B8
:10030000CF910895CF93DF93CDB7DEB780911801D9
:1003100090911901CC01A0E0B0E040E050E029E06C
:1003200030E0841B950B2817390708F406C18A5B57
:100330009F4FFC010C94290382E090E090931901F7
:100340008093180102C182E090E09093190180939C
:100350001801FBC080E290E0FC018081882F90E0D2
:100360008095909583709927039739F487E090E002
:100370009093190180931801E8C080E290E0FC019D
:100380008081882F90E081709927892B39F483E050
:1003900090E09093190180931801D7C080E290E01B
:1003A000FC018081882F90E082709927892B39F495
:1003B00085E090E09093190180931801C6C082E017
:1003C00090E09093190180931801BFC080911701AC
:1003D0008A3010F01092170184E090E09093190198
:1003E00080931801B2C080E290E0FC018081882FE8
:1003F00090E08095909583709927019739F483E078
:1004000090E090931901809318019FC082E090E0E2
:10041000909319018093180198C080E290E0FC014C
:100420008081882F90E081709927892BB9F4809181
:1004300017018F5F8093170184E090E0909319017A
:1004400080931801809117018A3008F47BC083E003
:1004500090E0909319018093180174C088E090E0B7
:1004600090931901809318016DC0809117018A3013
:1004700010F01092170186E090E09093190180939C
:10048000180163C080E290E0FC018081882F90E039
:1004900082709927892B39F489E090E090931901B3
:1004A0008093180152C082E090E0909319018093EC
:1004B00018014BC080E290E0FC018081882F90E021
:1004C00080959095837099270297B1F480911701D8
:1004D0008F5F8093170186E090E0909319018093DD
:1004E0001801809117018A3078F185E090E09093AF
:1004F00019018093180128C089E090E090931901B8
:100500008093180121C080E290E0FC018081882F57
:1005100090E08095909583709927039739F487E050
:1005200090E090931901809318010FC082E090E051
:10053000909319018093180108C01092190110922C
:10054000180103C0000001C00000809118019091C3
:100550001901CC01A0E0B0E040E050E029E030E03B
:10056000841B950B28173907C8F1805B9F4FFC014E
:100570000C94290385E290E027E0FC01208339C038
:1005800085E290E027E0FC01208333C01092170140
:1005900030C085E290E0FC018081893038F585E249
:1005A00090E025E230E0F90120812F5FFC012083FB
:1005B0001DC085E290E0FC0180818823C9F085E2BE
:1005C00090E025E230E0F90120812150FC012083F8
:1005D0000FC085E290E0FC0110820BC085E290E044
:1005E00027E0FC01208305C0000003C0000001C01B
:1005F00000000000DF91CF910895CF93DF93CDB736
:10060000DEB781E290E0FC01108282E290E02FEF01
:10061000FC01208384E290E02FEFFC01208385E23F
:1006200090E0FC01108264E670E080E090E00E94BF
:1006300054010E94BB0010921901109218010E94EF
:1006400082010000809112018823E1F310921201CF
:10065000F6CFEE0FFF1F0024001C0BBE0790F69193
:08066000E02D0994F894FFCF8E
:1006680000000002000000007B0000000000010004
:02067800000080
:00000001FF
