:100000000C945A000C9479000C9479000C947900AB
:100010000C9479000C9479000C9479000C9479007C
:100020000C9479000C9479000C9479000C9479006C
:100030000C9479000C94F2000C9479000C947900E3
:100040000C9479000C9479000C9479000C9479004C
:100050000C9479000C9479000C9479000C9479003C
:100060000C9479000C9479000C9479000C9479002C
:100070000C9479000C9479000C9479000C9479001C
:100080000C9479000C9479000C9479009C01A301E4
:10009000BB01D301EB0103021B0233024B026302DB
:1000A000C002C002900296029C02A202A802AE0206
:1000B000B402BA0211241FBECFEFD0E4DEBFCDBF21
:1000C00011E0A0E0B1E0E8EFF5E000E00BBF02C016
:1000D00007900D92A231B107D9F721E0A2E1B1E07A
:1000E00001C01D92A931B207E1F70E94C5020C942C
:1000F000FA020C940000CF93DF9300D01F92CDB78B
:10010000DEB789837B836A8389818A3031F48A816F
:100110009B81BC018DE00E947B0080EC90E0FC01A3
:100120008081882F90E080729927892BB1F386EC2B
:1001300090E02981FC01208380E090E00F900F90F7
:100140000F90DF91CF910895CF93DF93CDB7DEB7B6
:1001500081E0809312010000DF91CF910895CF9349
:10016000DF93CDB7DEB781E890E0FC01108200009C
:10017000DF91CF910895CF93DF93CDB7DEB781E8BC
:1001800090E02BE0FC01208388E890E02DE730E050
:10019000FC01318320838FE690E022E0FC01208384
:1001A00084E890E0FC011182108280910E01909110
:1001B0000F01A0911001B091110180931301909350
:1001C0001401A0931501B09316018FE590E02FE57F
:1001D00030E0F90120812068FC0120830000DF91DC
:1001E000CF9108951F920F9200905F000F921124FB
:1001F00000905B000F922F933F934F935F936F9309
:100200007F938F939F93AF93BF93EF93FF93CF937E
:10021000DF93CDB7DEB78091130190911401A091C7
:100220001501B09116010197A109B109809313013D
:1002300090931401A0931501B093160180911301BE
:1002400090911401A0911501B0911601892B8A2B70
:100250008B2B91F40E94A40080910E0190910F01CC
:10026000A0911001B091110180931301909314019A
:10027000A0931501B09316010000DF91CF91FF917B
:10028000EF91BF91AF919F918F917F916F915F910E
:100290004F913F912F910F9000925B000F90009231
:1002A0005F000F901F901895CF93DF9300D000D080
:1002B000CDB7DEB769837A838B839C8389819A81EA
:1002C000AB81BC8180930E0190930F01A09310012C
:1002D000B093110180910E0190910F01A091100136
:1002E000B09111018093130190931401A093150113
:1002F000B093160100000F900F900F900F90DF91B8
:10030000CF910895CF93DF93CDB7DEB780911701DA
:1003100090911801CC01A0E0B0E040E050E029E06D
:1003200030E0841B950B2817390708F4E4C08A5B7A
:100330009F4FFC010C94F10281E090E09093180132
:1003400080931701D8C080E290E0FC018081882F63
:1003500090E081709927892B39F481E090E09093A7
:10036000180180931701C7C082E090E090931801B4
:1003700080931701C0C080E290E0FC018081882F4B
:1003800090E081709927892B39F482E090E0909376
:10039000180180931701AFC083E090E0909318019B
:1003A00080931701A8C080E290E0FC018081882F33
:1003B00090E081709927892B39F483E090E0909345
:1003C00018018093170197C084E090E09093180182
:1003D0008093170190C080E290E0FC018081882F1B
:1003E00090E081709927892B39F485E090E0909313
:1003F0001801809317017FC086E090E09093180168
:100400008093170178C080E290E0FC018081882F02
:1004100090E081709927892B39F485E090E09093E2
:1004200018018093170167C086E090E0909318014F
:100430008093170160C080E290E0FC018081882FEA
:1004400090E081709927892B39F487E090E09093B0
:100450001801809317014FC088E090E09093180135
:100460008093170148C080E290E0FC018081882FD2
:1004700090E081709927892B39F487E090E0909380
:1004800018018093170137C088E090E0909318011D
:100490008093170130C080E290E0FC018081882FBA
:1004A00090E081709927892B39F488E090E090934F
:1004B0001801809317011FC089E090E09093180104
:1004C0008093170118C080E290E0FC018081882FA2
:1004D00090E081709927892B39F489E090E090931E
:1004E00018018093170106C082E090E090931801F4
:1004F0008093170100008091170190911801CC01A1
:10050000A0E0B0E040E050E029E030E0841B950B33
:1005100028173907B0F1805B9F4FFC010C94F10262
:1005200085E290E021E0FC0120832BC085E290E091
:1005300021E0FC01208325C085E290E022E0FC015F
:1005400020831FC085E290E022E0FC01208319C0D7
:1005500085E290E024E0FC01208313C085E290E076
:1005600024E0FC0120830DC085E290E022E0FC0144
:10057000208307C085E290E022E0FC01208301C0D7
:1005800000000000DF91CF910895CF93DF93CDB7A6
:10059000DEB781E290E0FC01108282E290E02FEF72
:1005A000FC01208384E290E02FEFFC01208385E2B0
:1005B00090E0FC0110826CE271E080E090E00E942B
:1005C00054010E94BB0010921801109217010E9462
:1005D00082010000809112018823E1F31092120140
:1005E000F6CFEE0FFF1F0024001C0BBE0790F69104
:0805F000E02D0994F894FFCFFF
:1005F80000000002000000007B0000000000010075
:020608000000F0
:00000001FF
